{
  "_format": "hh-sol-artifact-1",
  "contractName": "Transactions",
  "sourceName": "contracts/Transactions.sol",
  "abi": [
    {
      "anonymous": false,
      "inputs": [
        {
          "indexed": false,
          "internalType": "address",
          "name": "from",
          "type": "address"
        },
        {
          "indexed": false,
          "internalType": "address",
          "name": "receiver",
          "type": "address"
        },
        {
          "indexed": false,
          "internalType": "uint256",
          "name": "amount",
          "type": "uint256"
        },
        {
          "indexed": false,
          "internalType": "uint256",
          "name": "timestamp",
          "type": "uint256"
        }
      ],
      "name": "Transfer",
      "type": "event"
    },
    {
      "inputs": [
        {
          "internalType": "address payable",
          "name": "receiver",
          "type": "address"
        },
        {
          "internalType": "uint256",
          "name": "amount",
          "type": "uint256"
        }
      ],
      "name": "addToBlock",
      "outputs": [],
      "stateMutability": "nonpayable",
      "type": "function"
    },
    {
      "inputs": [],
      "name": "getAllTransactions",
      "outputs": [
        {
          "components": [
            {
              "internalType": "address",
              "name": "from",
              "type": "address"
            },
            {
              "internalType": "address",
              "name": "receiver",
              "type": "address"
            },
            {
              "internalType": "uint256",
              "name": "amount",
              "type": "uint256"
            },
            {
              "internalType": "uint256",
              "name": "timestamp",
              "type": "uint256"
            }
          ],
          "internalType": "struct Transactions.TransferStruct[]",
          "name": "",
          "type": "tuple[]"
        }
      ],
      "stateMutability": "view",
      "type": "function"
    },
    {
      "inputs": [],
      "name": "getTransactionCount",
      "outputs": [
        {
          "internalType": "uint256",
          "name": "",
          "type": "uint256"
        }
      ],
      "stateMutability": "view",
      "type": "function"
    }
  ],
  "bytecode": "0x608060405234801561001057600080fd5b506106d1806100206000396000f3fe608060405234801561001057600080fd5b50600436106100415760003560e01c806327506f531461004657806328259bed146100645780632e7700f014610080575b600080fd5b61004e61009e565b60405161005b91906104fb565b60405180910390f35b61007e60048036038101906100799190610364565b6101bd565b005b610088610331565b604051610095919061051d565b60405180910390f35b60606001805480602002602001604051908101604052809291908181526020016000905b828210156101b457838290600052602060002090600402016040518060800160405290816000820160009054906101000a900473ffffffffffffffffffffffffffffffffffffffff1673ffffffffffffffffffffffffffffffffffffffff1673ffffffffffffffffffffffffffffffffffffffff1681526020016001820160009054906101000a900473ffffffffffffffffffffffffffffffffffffffff1673ffffffffffffffffffffffffffffffffffffffff1673ffffffffffffffffffffffffffffffffffffffff16815260200160028201548152602001600382015481525050815260200190600101906100c2565b50505050905090565b7f9ed053bb818ff08b8353cd46f78db1f0799f31c9e4458fdb425c10eccd2efc44338383426040516101f294939291906104b6565b60405180910390a1600160405180608001604052803373ffffffffffffffffffffffffffffffffffffffff1681526020018473ffffffffffffffffffffffffffffffffffffffff16815260200183815260200142815250908060018154018082558091505060019003906000526020600020906004020160009091909190915060008201518160000160006101000a81548173ffffffffffffffffffffffffffffffffffffffff021916908373ffffffffffffffffffffffffffffffffffffffff16021790555060208201518160010160006101000a81548173ffffffffffffffffffffffffffffffffffffffff021916908373ffffffffffffffffffffffffffffffffffffffff16021790555060408201518160020155606082015181600301555050600080815480929190610328906105f5565b91905055505050565b60008054905090565b6000813590506103498161066d565b92915050565b60008135905061035e81610684565b92915050565b6000806040838503121561037757600080fd5b60006103858582860161033a565b92505060206103968582860161034f565b9150509250929050565b60006103ac8383610443565b60808301905092915050565b6103c1816105bf565b82525050565b6103d081610571565b82525050565b6103df81610571565b82525050565b60006103f082610548565b6103fa8185610560565b935061040583610538565b8060005b8381101561043657815161041d88826103a0565b975061042883610553565b925050600181019050610409565b5085935050505092915050565b60808201600082015161045960008501826103c7565b50602082015161046c60208501826103c7565b50604082015161047f6040850182610498565b5060608201516104926060850182610498565b50505050565b6104a1816105b5565b82525050565b6104b0816105b5565b82525050565b60006080820190506104cb60008301876103d6565b6104d860208301866103b8565b6104e560408301856104a7565b6104f260608301846104a7565b95945050505050565b6000602082019050818103600083015261051581846103e5565b905092915050565b600060208201905061053260008301846104a7565b92915050565b6000819050602082019050919050565b600081519050919050565b6000602082019050919050565b600082825260208201905092915050565b600061057c82610595565b9050919050565b600061058e82610595565b9050919050565b600073ffffffffffffffffffffffffffffffffffffffff82169050919050565b6000819050919050565b60006105ca826105d1565b9050919050565b60006105dc826105e3565b9050919050565b60006105ee82610595565b9050919050565b6000610600826105b5565b91507fffffffffffffffffffffffffffffffffffffffffffffffffffffffffffffffff8214156106335761063261063e565b5b600182019050919050565b7f4e487b7100000000000000000000000000000000000000000000000000000000600052601160045260246000fd5b61067681610583565b811461068157600080fd5b50565b61068d816105b5565b811461069857600080fd5b5056fea2646970667358221220e10dc5926e25b9846872fb1a352349f72320616c1c899aa31f3c9195ee386d9e64736f6c63430008000033",
  "linkReferences": {},
  "deployedLinkReferences": {}
}